{
  "contractName": "DrewsReviews",
  "abi": [
    {
      "constant": true,
      "inputs": [],
      "name": "owner",
      "outputs": [
        {
          "name": "",
          "type": "address"
        }
      ],
      "payable": false,
      "stateMutability": "view",
      "type": "function"
    },
    {
      "constant": true,
      "inputs": [],
      "name": "userReviewIndex",
      "outputs": [
        {
          "name": "",
          "type": "uint256"
        }
      ],
      "payable": false,
      "stateMutability": "view",
      "type": "function"
    },
    {
      "constant": true,
      "inputs": [],
      "name": "reviewIndex",
      "outputs": [
        {
          "name": "",
          "type": "uint256"
        }
      ],
      "payable": false,
      "stateMutability": "view",
      "type": "function"
    },
    {
      "inputs": [],
      "payable": false,
      "stateMutability": "nonpayable",
      "type": "constructor"
    },
    {
      "anonymous": false,
      "inputs": [
        {
          "indexed": false,
          "name": "_filmId",
          "type": "uint256"
        },
        {
          "indexed": false,
          "name": "_name",
          "type": "string"
        },
        {
          "indexed": false,
          "name": "_review",
          "type": "string"
        },
        {
          "indexed": false,
          "name": "_imageSource",
          "type": "string"
        },
        {
          "indexed": false,
          "name": "_score",
          "type": "uint256"
        }
      ],
      "name": "newReview",
      "type": "event"
    },
    {
      "anonymous": false,
      "inputs": [
        {
          "indexed": false,
          "name": "_filmId",
          "type": "uint256"
        },
        {
          "indexed": false,
          "name": "_name",
          "type": "string"
        },
        {
          "indexed": false,
          "name": "_review",
          "type": "string"
        },
        {
          "indexed": false,
          "name": "_imageSource",
          "type": "string"
        },
        {
          "indexed": false,
          "name": "_score",
          "type": "uint256"
        },
        {
          "indexed": false,
          "name": "_deleted",
          "type": "uint256"
        }
      ],
      "name": "editedReview",
      "type": "event"
    },
    {
      "anonymous": false,
      "inputs": [
        {
          "indexed": false,
          "name": "_filmId",
          "type": "uint256"
        },
        {
          "indexed": false,
          "name": "_userReviewId",
          "type": "uint256"
        },
        {
          "indexed": false,
          "name": "_userName",
          "type": "string"
        },
        {
          "indexed": false,
          "name": "_review",
          "type": "string"
        },
        {
          "indexed": false,
          "name": "_score",
          "type": "uint256"
        }
      ],
      "name": "newUserReview",
      "type": "event"
    },
    {
      "anonymous": false,
      "inputs": [
        {
          "indexed": false,
          "name": "_filmId",
          "type": "uint256"
        },
        {
          "indexed": false,
          "name": "_userReviewId",
          "type": "uint256"
        },
        {
          "indexed": false,
          "name": "_userName",
          "type": "string"
        },
        {
          "indexed": false,
          "name": "_review",
          "type": "string"
        },
        {
          "indexed": false,
          "name": "_score",
          "type": "uint256"
        },
        {
          "indexed": false,
          "name": "_deleted",
          "type": "uint256"
        }
      ],
      "name": "editedUserReview",
      "type": "event"
    },
    {
      "constant": false,
      "inputs": [
        {
          "name": "_name",
          "type": "string"
        },
        {
          "name": "_review",
          "type": "string"
        },
        {
          "name": "_reviewdate",
          "type": "uint256"
        },
        {
          "name": "_score",
          "type": "uint256"
        },
        {
          "name": "_imageSource",
          "type": "string"
        }
      ],
      "name": "addReview",
      "outputs": [],
      "payable": false,
      "stateMutability": "nonpayable",
      "type": "function"
    },
    {
      "constant": false,
      "inputs": [
        {
          "name": "_filmId",
          "type": "uint256"
        },
        {
          "name": "_username",
          "type": "string"
        },
        {
          "name": "_review",
          "type": "string"
        },
        {
          "name": "_score",
          "type": "uint256"
        }
      ],
      "name": "addUserReview",
      "outputs": [],
      "payable": false,
      "stateMutability": "nonpayable",
      "type": "function"
    },
    {
      "constant": true,
      "inputs": [
        {
          "name": "_filmId",
          "type": "uint256"
        }
      ],
      "name": "getReview",
      "outputs": [
        {
          "name": "",
          "type": "string"
        },
        {
          "name": "",
          "type": "string"
        },
        {
          "name": "",
          "type": "uint256"
        },
        {
          "name": "",
          "type": "uint256"
        },
        {
          "name": "",
          "type": "string"
        },
        {
          "name": "",
          "type": "uint256"
        }
      ],
      "payable": false,
      "stateMutability": "view",
      "type": "function"
    },
    {
      "constant": true,
      "inputs": [
        {
          "name": "_userReviewId",
          "type": "uint256"
        }
      ],
      "name": "getUserReview",
      "outputs": [
        {
          "name": "",
          "type": "uint256"
        },
        {
          "name": "",
          "type": "string"
        },
        {
          "name": "",
          "type": "string"
        },
        {
          "name": "",
          "type": "uint256"
        },
        {
          "name": "",
          "type": "uint256"
        }
      ],
      "payable": false,
      "stateMutability": "view",
      "type": "function"
    }
  ],
  "bytecode": "0x6080604052737753233bfe961ec770602e3f80900e26a5357f36600260006101000a81548173ffffffffffffffffffffffffffffffffffffffff021916908373ffffffffffffffffffffffffffffffffffffffff16021790555034801561006557600080fd5b50600080819055506000600181905550611109806100846000396000f3fe608060405234801561001057600080fd5b506004361061007d5760003560e01c80638da5cb5b1161005b5780638da5cb5b1461050d578063990581b614610557578063e45fc69b146106eb578063fce52c6b146107095761007d565b80630b19181c1461008257806320500cac146101e857806337119e93146103e5575b600080fd5b6101e66004803603608081101561009857600080fd5b8101908080359060200190929190803590602001906401000000008111156100bf57600080fd5b8201836020820111156100d157600080fd5b803590602001918460018302840111640100000000831117156100f357600080fd5b91908080601f016020809104026020016040519081016040528093929190818152602001838380828437600081840152601f19601f8201169050808301925050505050505091929192908035906020019064010000000081111561015657600080fd5b82018360208201111561016857600080fd5b8035906020019184600183028401116401000000008311171561018a57600080fd5b91908080601f016020809104026020016040519081016040528093929190818152602001838380828437600081840152601f19601f82011690508083019250505050505050919291929080359060200190929190505050610727565b005b6103e3600480360360a08110156101fe57600080fd5b810190808035906020019064010000000081111561021b57600080fd5b82018360208201111561022d57600080fd5b8035906020019184600183028401116401000000008311171561024f57600080fd5b91908080601f016020809104026020016040519081016040528093929190818152602001838380828437600081840152601f19601f820116905080830192505050505050509192919290803590602001906401000000008111156102b257600080fd5b8201836020820111156102c457600080fd5b803590602001918460018302840111640100000000831117156102e657600080fd5b91908080601f016020809104026020016040519081016040528093929190818152602001838380828437600081840152601f19601f82011690508083019250505050505050919291929080359060200190929190803590602001909291908035906020019064010000000081111561035d57600080fd5b82018360208201111561036f57600080fd5b8035906020019184600183028401116401000000008311171561039157600080fd5b91908080601f016020809104026020016040519081016040528093929190818152602001838380828437600081840152601f19601f820116905080830192505050505050509192919290505050610904565b005b610411600480360360208110156103fb57600080fd5b8101908080359060200190929190505050610b69565b604051808681526020018060200180602001858152602001848152602001838103835287818151815260200191508051906020019080838360005b8381101561046757808201518184015260208101905061044c565b50505050905090810190601f1680156104945780820380516001836020036101000a031916815260200191505b50838103825286818151815260200191508051906020019080838360005b838110156104cd5780820151818401526020810190506104b2565b50505050905090810190601f1680156104fa5780820380516001836020036101000a031916815260200191505b5097505050505050505060405180910390f35b610515610d2e565b604051808273ffffffffffffffffffffffffffffffffffffffff1673ffffffffffffffffffffffffffffffffffffffff16815260200191505060405180910390f35b6105836004803603602081101561056d57600080fd5b8101908080359060200190929190505050610d54565b6040518080602001806020018781526020018681526020018060200185815260200184810384528a818151815260200191508051906020019080838360005b838110156105dd5780820151818401526020810190506105c2565b50505050905090810190601f16801561060a5780820380516001836020036101000a031916815260200191505b50848103835289818151815260200191508051906020019080838360005b83811015610643578082015181840152602081019050610628565b50505050905090810190601f1680156106705780820380516001836020036101000a031916815260200191505b50848103825286818151815260200191508051906020019080838360005b838110156106a957808201518184015260208101905061068e565b50505050905090810190601f1680156106d65780820380516001836020036101000a031916815260200191505b50995050505050505050505060405180910390f35b6106f3610fc7565b6040518082815260200191505060405180910390f35b610711610fcd565b6040518082815260200191505060405180910390f35b6001806000828254019250508190555061073f610fd3565b6040518060a0016040528086815260200185815260200184815260200183815260200160008152509050806004600060015481526020019081526020016000206000820151816000015560208201518160010190805190602001906107a5929190611002565b5060408201518160020190805190602001906107c2929190611002565b5060608201518160030155608082015181600401559050507fd5288edcfc10a1de6a97c402599ad3cc1d03c339725e021efdfa81ae6fc0952485600154868686604051808681526020018581526020018060200180602001848152602001838103835286818151815260200191508051906020019080838360005b8381101561085857808201518184015260208101905061083d565b50505050905090810190601f1680156108855780820380516001836020036101000a031916815260200191505b50838103825285818151815260200191508051906020019080838360005b838110156108be5780820151818401526020810190506108a3565b50505050905090810190601f1680156108eb5780820380516001836020036101000a031916815260200191505b5097505050505050505060405180910390a15050505050565b6001600080828254019250508190555061091c611082565b6040518060c0016040528087815260200186815260200185815260200184815260200183815260200160008152509050806003600080548152602001908152602001600020600082015181600001908051906020019061097d929190611002565b50602082015181600101908051906020019061099a929190611002565b50604082015181600201556060820151816003015560808201518160040190805190602001906109cb929190611002565b5060a082015181600501559050507f01e672598a989edf6316dd8a38374068fd7a0aea8e78093a6e38b3d1b0fff6c86000548787858760405180868152602001806020018060200180602001858152602001848103845288818151815260200191508051906020019080838360005b83811015610a55578082015181840152602081019050610a3a565b50505050905090810190601f168015610a825780820380516001836020036101000a031916815260200191505b50848103835287818151815260200191508051906020019080838360005b83811015610abb578082015181840152602081019050610aa0565b50505050905090810190601f168015610ae85780820380516001836020036101000a031916815260200191505b50848103825286818151815260200191508051906020019080838360005b83811015610b21578082015181840152602081019050610b06565b50505050905090810190601f168015610b4e5780820380516001836020036101000a031916815260200191505b509850505050505050505060405180910390a1505050505050565b6000606080600080610b79610fd3565b600460008881526020019081526020016000206040518060a001604052908160008201548152602001600182018054600181600116156101000203166002900480601f016020809104026020016040519081016040528092919081815260200182805460018160011615610100020316600290048015610c3a5780601f10610c0f57610100808354040283529160200191610c3a565b820191906000526020600020905b815481529060010190602001808311610c1d57829003601f168201915b50505050508152602001600282018054600181600116156101000203166002900480601f016020809104026020016040519081016040528092919081815260200182805460018160011615610100020316600290048015610cdc5780601f10610cb157610100808354040283529160200191610cdc565b820191906000526020600020905b815481529060010190602001808311610cbf57829003601f168201915b5050505050815260200160038201548152602001600482015481525050905080600001518160200151826040015183606001518460800151839350829250955095509550955095505091939590929450565b600260009054906101000a900473ffffffffffffffffffffffffffffffffffffffff1681565b60608060008060606000610d66611082565b600360008981526020019081526020016000206040518060c0016040529081600082018054600181600116156101000203166002900480601f016020809104026020016040519081016040528092919081815260200182805460018160011615610100020316600290048015610e1d5780601f10610df257610100808354040283529160200191610e1d565b820191906000526020600020905b815481529060010190602001808311610e0057829003601f168201915b50505050508152602001600182018054600181600116156101000203166002900480601f016020809104026020016040519081016040528092919081815260200182805460018160011615610100020316600290048015610ebf5780601f10610e9457610100808354040283529160200191610ebf565b820191906000526020600020905b815481529060010190602001808311610ea257829003601f168201915b505050505081526020016002820154815260200160038201548152602001600482018054600181600116156101000203166002900480601f016020809104026020016040519081016040528092919081815260200182805460018160011615610100020316600290048015610f755780601f10610f4a57610100808354040283529160200191610f75565b820191906000526020600020905b815481529060010190602001808311610f5857829003601f168201915b505050505081526020016005820154815250509050806000015181602001518260400151836060015184608001518560a001518595508494508191509650965096509650965096505091939550919395565b60015481565b60005481565b6040518060a0016040528060008152602001606081526020016060815260200160008152602001600081525090565b828054600181600116156101000203166002900490600052602060002090601f016020900481019282601f1061104357805160ff1916838001178555611071565b82800160010185558215611071579182015b82811115611070578251825591602001919060010190611055565b5b50905061107e91906110b8565b5090565b6040518060c001604052806060815260200160608152602001600081526020016000815260200160608152602001600081525090565b6110da91905b808211156110d65760008160009055506001016110be565b5090565b9056fea165627a7a72305820512f9f6d92349ae77c0e701e470c09c0beed3a59bafacb33a8a1c12f0fd8f0f80029",
  "source": "pragma solidity >=0.4.0 <0.6.0;\n\ncontract DrewsReviews {\n    \n    uint public reviewIndex;\n    uint public userReviewIndex;\n    address public owner = 0x7753233bfe961eC770602e3F80900E26A5357F36;\n    \n    mapping (uint => Review) reviewList;\n    mapping (uint => userReview) userReviewList;\n\n\n\tstruct Review {\n\t\tstring name;\n\t\tstring review;\n\t\tuint reviewDate;\n\t\tuint score;\n\t\tstring imageSource;\n\t\tuint deleted;\n\t}\n\n\tstruct userReview {\n\t\tuint filmId;\n\t\tstring userName;\n\t\tstring review;\n\t\tuint score;\n\t\tuint deleted;\n\t}\n\t\nconstructor () public {\n    reviewIndex = 0;\n    userReviewIndex = 0;\n}\n\nevent newReview(uint _filmId, string _name, string _review, string _imageSource, uint _score);\n\nevent editedReview(uint _filmId, string _name, string _review, string _imageSource, uint _score, uint _deleted);\n\nevent newUserReview(uint _filmId, uint _userReviewId, string _userName, string _review, uint _score);\n\nevent editedUserReview(uint _filmId, uint _userReviewId, string _userName, string _review, uint _score, uint _deleted);\n\nfunction addReview(string memory _name, string memory _review, uint _reviewdate, uint _score, string memory _imageSource) public {\n\n    reviewIndex += 1;\n    Review memory review = Review (_name, _review, _reviewdate, _score, _imageSource, 0 );\n    reviewList[reviewIndex] = review;\n    emit newReview(reviewIndex, _name, _review, _imageSource, _score);\n}\n\n\n// function editReview(uint _filmId, string _name, string _review, uint _reviewdate, uint _score, string _imageSource, uint _deleted) public {\n// \tassert(msg.sender == owner);\n    \n//     Review memory review = Review (_name, _review, _reviewdate, _score, _imageSource, _deleted );\n\n//     reviewList[_filmId] = review;\n//     emit editedReview(_filmId, _name, _review, _imageSource, _score, _deleted);\n// }\n\n// function deleteUserReview(uint _userReviewId) public {\n// \tassert(msg.sender == owner);\n\n// \tuserReview memory _originalReview = userReviewList[_userReviewId];\n    \n//     userReview memory _userReview = userReview ( _originalReview.filmId, _originalReview.userName, _originalReview.review, _originalReview.score, 1);\n//     userReviewList[_userReviewId] = _userReview;\n//     emit editedUserReview(_originalReview.filmId, _userReviewId, _originalReview.userName, _originalReview.review, _originalReview.score, 1);\n// }\n\nfunction addUserReview(uint _filmId, string memory _username, string memory _review, uint _score) public {\n    userReviewIndex += 1;\n    \n    userReview memory _userReview = userReview (_filmId, _username, _review, _score, 0);\n    userReviewList[userReviewIndex] = _userReview;\n    emit newUserReview(_filmId, userReviewIndex, _username, _review, _score);\n}\n\nfunction getReview(uint _filmId) view public returns (string memory, string memory, uint, uint, string memory, uint) {\n\tReview memory review = reviewList[_filmId];\n\treturn (review.name, review.review, review.reviewDate, review.score, review.imageSource, review.deleted);\n}\n\nfunction getUserReview(uint _userReviewId) view public returns (uint, string memory, string memory, uint, uint) {\n\tuserReview memory _userReview = userReviewList[_userReviewId];\n\treturn (_userReview.filmId, _userReview.userName, _userReview.review, _userReview.score, _userReview.deleted);\n}\n\n}",
  "sourcePath": "/Users/mcplums/Repos/DrewsReviewsUpgraded/contracts/DrewsReviews.sol",
  "compiler": {
    "name": "solc",
    "version": "0.5.8+commit.23d335f2.Emscripten.clang"
  },
  "schemaVersion": "3.0.15",
  "updatedAt": "2019-09-12T11:13:51.543Z",
  "devdoc": {
    "methods": {}
  },
  "userdoc": {
    "methods": {}
  }
}